{
  "contractName": "CroesusFactory",
  "abi": [
    {
      "constant": true,
      "inputs": [
        {
          "name": "",
          "type": "address"
        }
      ],
      "name": "winners",
      "outputs": [
        {
          "name": "",
          "type": "bool"
        }
      ],
      "payable": false,
      "stateMutability": "view",
      "type": "function"
    },
    {
      "anonymous": false,
      "inputs": [
        {
          "indexed": true,
          "name": "sender",
          "type": "address"
        },
        {
          "indexed": true,
          "name": "croesus",
          "type": "address"
        },
        {
          "indexed": false,
          "name": "braggingRights",
          "type": "bytes32"
        }
      ],
      "name": "LogWon",
      "type": "event"
    },
    {
      "constant": false,
      "inputs": [
        {
          "name": "braggingRights",
          "type": "bytes32"
        }
      ],
      "name": "tryToWin",
      "outputs": [],
      "payable": false,
      "stateMutability": "nonpayable",
      "type": "function"
    }
  ],
  "bytecode": "0x608060405234801561001057600080fd5b506102aa806100206000396000f3fe60806040526004361061004c576000357c0100000000000000000000000000000000000000000000000000000000900463ffffffff168063287b8a6d146100515780636bd5450a1461008c575b600080fd5b34801561005d57600080fd5b5061008a6004803603602081101561007457600080fd5b81019080803590602001909291905050506100f5565b005b34801561009857600080fd5b506100db600480360360208110156100af57600080fd5b81019080803573ffffffffffffffffffffffffffffffffffffffff1690602001909291905050506101d8565b604051808215151515815260200191505060405180910390f35b60016000803373ffffffffffffffffffffffffffffffffffffffff1673ffffffffffffffffffffffffffffffffffffffff16815260200190815260200160002060006101000a81548160ff0219169083151502179055506101546101f8565b604051809103906000f080158015610170573d6000803e3d6000fd5b5073ffffffffffffffffffffffffffffffffffffffff163373ffffffffffffffffffffffffffffffffffffffff167f7e1ab0a1684037c2de950b3ac3e654613f269bc5c5d8049f30b39985da942e98836040518082815260200191505060405180910390a350565b60006020528060005260406000206000915054906101000a900460ff1681565b6040516077806102088339019056fe6080604052348015600f57600080fd5b5060003073ffffffffffffffffffffffffffffffffffffffff1631111515603557600080fd5b60358060426000396000f3fe6080604052600080fdfea165627a7a72305820505a87506671e35c68fc34bc4144c4bcbd303fb93813a9276d543b1db20216400029a165627a7a72305820c172d4bd28e7f92b37cec45ad6336dd4a093fe58a7949da5095a68a27e3e7e710029",
  "source": "pragma solidity 0.5.0;\n\nimport { Croesus } from \"./Croesus.sol\";\n\ncontract CroesusFactory {\n    mapping (address => bool) public winners;\n    \n    event LogWon(address indexed sender, address indexed croesus, bytes32 braggingRights);\n\n    function tryToWin(bytes32 braggingRights) public {\n        winners[msg.sender] = true;\n        emit LogWon(msg.sender, address(new Croesus()), braggingRights);\n    }\n}",
  "sourcePath": "/home/vagrant/DAPPS/b9internal/croesus/contracts/CroesusFactory.sol",
  "compiler": {
    "name": "solc",
    "version": "0.5.0+commit.1d4f565a.Emscripten.clang"
  },
  "schemaVersion": "3.0.3",
  "updatedAt": "2019-04-05T14:50:12.947Z",
  "devdoc": {
    "methods": {}
  },
  "userdoc": {
    "methods": {}
  }
}